{
  "address": "0x579C40608Fc40362e1aAFA06f19c6a89588bb2A1",
  "abi": [
    {
      "inputs": [
        {
          "internalType": "uint256",
          "name": "_initialSupply",
          "type": "uint256"
        },
        {
          "internalType": "address",
          "name": "_token",
          "type": "address"
        },
        {
          "internalType": "uint256",
          "name": "_tokenId",
          "type": "uint256"
        },
        {
          "internalType": "uint256",
          "name": "_listPrice",
          "type": "uint256"
        },
        {
          "internalType": "string",
          "name": "_name",
          "type": "string"
        }
      ],
      "stateMutability": "nonpayable",
      "type": "constructor"
    },
    {
      "inputs": [],
      "name": "InsufficientBalance",
      "type": "error"
    },
    {
      "inputs": [],
      "name": "zeroValue",
      "type": "error"
    },
    {
      "anonymous": false,
      "inputs": [
        {
          "indexed": true,
          "internalType": "address",
          "name": "owner",
          "type": "address"
        },
        {
          "indexed": true,
          "internalType": "address",
          "name": "spender",
          "type": "address"
        },
        {
          "indexed": false,
          "internalType": "uint256",
          "name": "value",
          "type": "uint256"
        }
      ],
      "name": "Approval",
      "type": "event"
    },
    {
      "anonymous": false,
      "inputs": [
        {
          "indexed": true,
          "internalType": "address",
          "name": "previousOwner",
          "type": "address"
        },
        {
          "indexed": true,
          "internalType": "address",
          "name": "newOwner",
          "type": "address"
        }
      ],
      "name": "OwnershipTransferred",
      "type": "event"
    },
    {
      "anonymous": false,
      "inputs": [
        {
          "indexed": true,
          "internalType": "address",
          "name": "from",
          "type": "address"
        },
        {
          "indexed": true,
          "internalType": "address",
          "name": "to",
          "type": "address"
        },
        {
          "indexed": false,
          "internalType": "uint256",
          "name": "value",
          "type": "uint256"
        }
      ],
      "name": "Transfer",
      "type": "event"
    },
    {
      "inputs": [
        {
          "internalType": "address",
          "name": "owner",
          "type": "address"
        },
        {
          "internalType": "address",
          "name": "spender",
          "type": "address"
        }
      ],
      "name": "allowance",
      "outputs": [
        {
          "internalType": "uint256",
          "name": "",
          "type": "uint256"
        }
      ],
      "stateMutability": "view",
      "type": "function"
    },
    {
      "inputs": [
        {
          "internalType": "address",
          "name": "spender",
          "type": "address"
        },
        {
          "internalType": "uint256",
          "name": "amount",
          "type": "uint256"
        }
      ],
      "name": "approve",
      "outputs": [
        {
          "internalType": "bool",
          "name": "",
          "type": "bool"
        }
      ],
      "stateMutability": "nonpayable",
      "type": "function"
    },
    {
      "inputs": [
        {
          "internalType": "address",
          "name": "account",
          "type": "address"
        }
      ],
      "name": "balanceOf",
      "outputs": [
        {
          "internalType": "uint256",
          "name": "",
          "type": "uint256"
        }
      ],
      "stateMutability": "view",
      "type": "function"
    },
    {
      "inputs": [
        {
          "internalType": "uint256",
          "name": "amount",
          "type": "uint256"
        }
      ],
      "name": "buyTokens",
      "outputs": [],
      "stateMutability": "payable",
      "type": "function"
    },
    {
      "inputs": [
        {
          "internalType": "uint256",
          "name": "newPrice",
          "type": "uint256"
        }
      ],
      "name": "changePrice",
      "outputs": [],
      "stateMutability": "nonpayable",
      "type": "function"
    },
    {
      "inputs": [],
      "name": "decimals",
      "outputs": [
        {
          "internalType": "uint8",
          "name": "",
          "type": "uint8"
        }
      ],
      "stateMutability": "view",
      "type": "function"
    },
    {
      "inputs": [
        {
          "internalType": "address",
          "name": "spender",
          "type": "address"
        },
        {
          "internalType": "uint256",
          "name": "subtractedValue",
          "type": "uint256"
        }
      ],
      "name": "decreaseAllowance",
      "outputs": [
        {
          "internalType": "bool",
          "name": "",
          "type": "bool"
        }
      ],
      "stateMutability": "nonpayable",
      "type": "function"
    },
    {
      "inputs": [],
      "name": "getNftAddress",
      "outputs": [
        {
          "internalType": "address",
          "name": "",
          "type": "address"
        }
      ],
      "stateMutability": "view",
      "type": "function"
    },
    {
      "inputs": [],
      "name": "getPrice",
      "outputs": [
        {
          "internalType": "uint256",
          "name": "",
          "type": "uint256"
        }
      ],
      "stateMutability": "view",
      "type": "function"
    },
    {
      "inputs": [],
      "name": "getTokenId",
      "outputs": [
        {
          "internalType": "uint256",
          "name": "",
          "type": "uint256"
        }
      ],
      "stateMutability": "view",
      "type": "function"
    },
    {
      "inputs": [
        {
          "internalType": "address",
          "name": "spender",
          "type": "address"
        },
        {
          "internalType": "uint256",
          "name": "addedValue",
          "type": "uint256"
        }
      ],
      "name": "increaseAllowance",
      "outputs": [
        {
          "internalType": "bool",
          "name": "",
          "type": "bool"
        }
      ],
      "stateMutability": "nonpayable",
      "type": "function"
    },
    {
      "inputs": [
        {
          "internalType": "uint256",
          "name": "amount",
          "type": "uint256"
        }
      ],
      "name": "mintTokens",
      "outputs": [],
      "stateMutability": "nonpayable",
      "type": "function"
    },
    {
      "inputs": [],
      "name": "name",
      "outputs": [
        {
          "internalType": "string",
          "name": "",
          "type": "string"
        }
      ],
      "stateMutability": "view",
      "type": "function"
    },
    {
      "inputs": [],
      "name": "owner",
      "outputs": [
        {
          "internalType": "address",
          "name": "",
          "type": "address"
        }
      ],
      "stateMutability": "view",
      "type": "function"
    },
    {
      "inputs": [],
      "name": "renounceOwnership",
      "outputs": [],
      "stateMutability": "nonpayable",
      "type": "function"
    },
    {
      "inputs": [],
      "name": "s_nftAddress",
      "outputs": [
        {
          "internalType": "address",
          "name": "",
          "type": "address"
        }
      ],
      "stateMutability": "view",
      "type": "function"
    },
    {
      "inputs": [],
      "name": "s_price",
      "outputs": [
        {
          "internalType": "uint256",
          "name": "",
          "type": "uint256"
        }
      ],
      "stateMutability": "view",
      "type": "function"
    },
    {
      "inputs": [],
      "name": "s_tokenId",
      "outputs": [
        {
          "internalType": "uint256",
          "name": "",
          "type": "uint256"
        }
      ],
      "stateMutability": "view",
      "type": "function"
    },
    {
      "inputs": [],
      "name": "symbol",
      "outputs": [
        {
          "internalType": "string",
          "name": "",
          "type": "string"
        }
      ],
      "stateMutability": "view",
      "type": "function"
    },
    {
      "inputs": [],
      "name": "totalSupply",
      "outputs": [
        {
          "internalType": "uint256",
          "name": "",
          "type": "uint256"
        }
      ],
      "stateMutability": "view",
      "type": "function"
    },
    {
      "inputs": [
        {
          "internalType": "address",
          "name": "to",
          "type": "address"
        },
        {
          "internalType": "uint256",
          "name": "amount",
          "type": "uint256"
        }
      ],
      "name": "transfer",
      "outputs": [
        {
          "internalType": "bool",
          "name": "",
          "type": "bool"
        }
      ],
      "stateMutability": "nonpayable",
      "type": "function"
    },
    {
      "inputs": [
        {
          "internalType": "address",
          "name": "from",
          "type": "address"
        },
        {
          "internalType": "address",
          "name": "to",
          "type": "address"
        },
        {
          "internalType": "uint256",
          "name": "amount",
          "type": "uint256"
        }
      ],
      "name": "transferFrom",
      "outputs": [
        {
          "internalType": "bool",
          "name": "",
          "type": "bool"
        }
      ],
      "stateMutability": "nonpayable",
      "type": "function"
    },
    {
      "inputs": [
        {
          "internalType": "address",
          "name": "newOwner",
          "type": "address"
        }
      ],
      "name": "transferOwnership",
      "outputs": [],
      "stateMutability": "nonpayable",
      "type": "function"
    },
    {
      "stateMutability": "payable",
      "type": "receive"
    }
  ],
  "transactionHash": "0xdc4cab94208309c29aca33336b4ebc634299ab86def3e5b3994322004a762b35",
  "args": [
    1000,
    "0x7D8278D457B0aFC06AD07c418a895Ae56fd602d1",
    1,
    "100000000000000000",
    "fractional"
  ],
  "numDeployments": 1,
  "solcInputHash": "89b1cf45a20ba38e0a7eec5aade54438",
  "bytecode": "0x60a06040523480156200001157600080fd5b5060405162002993380380620029938339818101604052810190620000379190620006a5565b806040518060400160405280600381526020017f4e4641000000000000000000000000000000000000000000000000000000000081525081600390816200007f91906200098d565b5080600490816200009191906200098d565b505050620000b4620000a86200011260201b60201c565b6200011a60201b60201c565b816006819055508373ffffffffffffffffffffffffffffffffffffffff1660808173ffffffffffffffffffffffffffffffffffffffff1681525050826007819055506200010785620001e060201b60201c565b505050505062000c01565b600033905090565b6000600560009054906101000a900473ffffffffffffffffffffffffffffffffffffffff16905081600560006101000a81548173ffffffffffffffffffffffffffffffffffffffff021916908373ffffffffffffffffffffffffffffffffffffffff1602179055508173ffffffffffffffffffffffffffffffffffffffff168173ffffffffffffffffffffffffffffffffffffffff167f8be0079c531659141344cd1fd0a4f28419497f9722a3daafe3b4186f6b6457e060405160405180910390a35050565b620001f06200024060201b60201c565b600081036200022b576040517f3b19a3e000000000000000000000000000000000000000000000000000000000815260040160405180910390fd5b6200023d3382620002d160201b60201c565b50565b620002506200011260201b60201c565b73ffffffffffffffffffffffffffffffffffffffff16620002766200043e60201b60201c565b73ffffffffffffffffffffffffffffffffffffffff1614620002cf576040517f08c379a0000000000000000000000000000000000000000000000000000000008152600401620002c69062000ad5565b60405180910390fd5b565b600073ffffffffffffffffffffffffffffffffffffffff168273ffffffffffffffffffffffffffffffffffffffff160362000343576040517f08c379a00000000000000000000000000000000000000000000000000000000081526004016200033a9062000b47565b60405180910390fd5b62000357600083836200046860201b60201c565b80600260008282546200036b919062000b98565b92505081905550806000808473ffffffffffffffffffffffffffffffffffffffff1673ffffffffffffffffffffffffffffffffffffffff168152602001908152602001600020600082825401925050819055508173ffffffffffffffffffffffffffffffffffffffff16600073ffffffffffffffffffffffffffffffffffffffff167fddf252ad1be2c89b69c2b068fc378daa952ba7f163c4a11628f55a4df523b3ef836040516200041e919062000be4565b60405180910390a36200043a600083836200046d60201b60201c565b5050565b6000600560009054906101000a900473ffffffffffffffffffffffffffffffffffffffff16905090565b505050565b505050565b6000604051905090565b600080fd5b600080fd5b6000819050919050565b6200049b8162000486565b8114620004a757600080fd5b50565b600081519050620004bb8162000490565b92915050565b600073ffffffffffffffffffffffffffffffffffffffff82169050919050565b6000620004ee82620004c1565b9050919050565b6200050081620004e1565b81146200050c57600080fd5b50565b6000815190506200052081620004f5565b92915050565b600080fd5b600080fd5b6000601f19601f8301169050919050565b7f4e487b7100000000000000000000000000000000000000000000000000000000600052604160045260246000fd5b6200057b8262000530565b810181811067ffffffffffffffff821117156200059d576200059c62000541565b5b80604052505050565b6000620005b262000472565b9050620005c0828262000570565b919050565b600067ffffffffffffffff821115620005e357620005e262000541565b5b620005ee8262000530565b9050602081019050919050565b60005b838110156200061b578082015181840152602081019050620005fe565b60008484015250505050565b60006200063e6200063884620005c5565b620005a6565b9050828152602081018484840111156200065d576200065c6200052b565b5b6200066a848285620005fb565b509392505050565b600082601f8301126200068a576200068962000526565b5b81516200069c84826020860162000627565b91505092915050565b600080600080600060a08688031215620006c457620006c36200047c565b5b6000620006d488828901620004aa565b9550506020620006e7888289016200050f565b9450506040620006fa88828901620004aa565b93505060606200070d88828901620004aa565b925050608086015167ffffffffffffffff81111562000731576200073062000481565b5b6200073f8882890162000672565b9150509295509295909350565b600081519050919050565b7f4e487b7100000000000000000000000000000000000000000000000000000000600052602260045260246000fd5b600060028204905060018216806200079f57607f821691505b602082108103620007b557620007b462000757565b5b50919050565b60008190508160005260206000209050919050565b60006020601f8301049050919050565b600082821b905092915050565b6000600883026200081f7fffffffffffffffffffffffffffffffffffffffffffffffffffffffffffffffff82620007e0565b6200082b8683620007e0565b95508019841693508086168417925050509392505050565b6000819050919050565b60006200086e62000868620008628462000486565b62000843565b62000486565b9050919050565b6000819050919050565b6200088a836200084d565b620008a2620008998262000875565b848454620007ed565b825550505050565b600090565b620008b9620008aa565b620008c68184846200087f565b505050565b5b81811015620008ee57620008e2600082620008af565b600181019050620008cc565b5050565b601f8211156200093d576200090781620007bb565b6200091284620007d0565b8101602085101562000922578190505b6200093a6200093185620007d0565b830182620008cb565b50505b505050565b600082821c905092915050565b6000620009626000198460080262000942565b1980831691505092915050565b60006200097d83836200094f565b9150826002028217905092915050565b62000998826200074c565b67ffffffffffffffff811115620009b457620009b362000541565b5b620009c0825462000786565b620009cd828285620008f2565b600060209050601f83116001811462000a055760008415620009f0578287015190505b620009fc85826200096f565b86555062000a6c565b601f19841662000a1586620007bb565b60005b8281101562000a3f5784890151825560018201915060208501945060208101905062000a18565b8683101562000a5f578489015162000a5b601f8916826200094f565b8355505b6001600288020188555050505b505050505050565b600082825260208201905092915050565b7f4f776e61626c653a2063616c6c6572206973206e6f7420746865206f776e6572600082015250565b600062000abd60208362000a74565b915062000aca8262000a85565b602082019050919050565b6000602082019050818103600083015262000af08162000aae565b9050919050565b7f45524332303a206d696e7420746f20746865207a65726f206164647265737300600082015250565b600062000b2f601f8362000a74565b915062000b3c8262000af7565b602082019050919050565b6000602082019050818103600083015262000b628162000b20565b9050919050565b7f4e487b7100000000000000000000000000000000000000000000000000000000600052601160045260246000fd5b600062000ba58262000486565b915062000bb28362000486565b925082820190508082111562000bcd5762000bcc62000b69565b5b92915050565b62000bde8162000486565b82525050565b600060208201905062000bfb600083018462000bd3565b92915050565b608051611d6f62000c24600039600081816108410152610a620152611d6f6000f3fe6080604052600436106101445760003560e01c8063715018a6116100b6578063a2b40d191161006f578063a2b40d191461044e578063a457c2d714610477578063a9059cbb146104b4578063be9a71bd146104f1578063dd62ed3e1461051c578063f2fde38b146105595761014b565b8063715018a6146103625780637d5417d1146103795780638da5cb5b146103a457806395d89b41146103cf57806397304ced146103fa57806398d5fdca146104235761014b565b806323b872dd1161010857806323b872dd14610239578063271f564d14610276578063313ce567146102a15780633610724e146102cc57806339509351146102e857806370a08231146103255761014b565b8063010a38f51461015057806306fdde031461017b578063095ea7b3146101a6578063171314f1146101e357806318160ddd1461020e5761014b565b3661014b57005b600080fd5b34801561015c57600080fd5b50610165610582565b6040516101729190611320565b60405180910390f35b34801561018757600080fd5b5061019061058c565b60405161019d91906113cb565b60405180910390f35b3480156101b257600080fd5b506101cd60048036038101906101c8919061147c565b61061e565b6040516101da91906114d7565b60405180910390f35b3480156101ef57600080fd5b506101f8610641565b6040516102059190611320565b60405180910390f35b34801561021a57600080fd5b50610223610647565b6040516102309190611320565b60405180910390f35b34801561024557600080fd5b50610260600480360381019061025b91906114f2565b610651565b60405161026d91906114d7565b60405180910390f35b34801561028257600080fd5b5061028b610680565b6040516102989190611320565b60405180910390f35b3480156102ad57600080fd5b506102b6610686565b6040516102c39190611561565b60405180910390f35b6102e660048036038101906102e1919061157c565b61068f565b005b3480156102f457600080fd5b5061030f600480360381019061030a919061147c565b6107ac565b60405161031c91906114d7565b60405180910390f35b34801561033157600080fd5b5061034c600480360381019061034791906115a9565b6107e3565b6040516103599190611320565b60405180910390f35b34801561036e57600080fd5b5061037761082b565b005b34801561038557600080fd5b5061038e61083f565b60405161039b91906115e5565b60405180910390f35b3480156103b057600080fd5b506103b9610863565b6040516103c691906115e5565b60405180910390f35b3480156103db57600080fd5b506103e461088d565b6040516103f191906113cb565b60405180910390f35b34801561040657600080fd5b50610421600480360381019061041c919061157c565b61091f565b005b34801561042f57600080fd5b5061043861096e565b6040516104459190611320565b60405180910390f35b34801561045a57600080fd5b506104756004803603810190610470919061157c565b610978565b005b34801561048357600080fd5b5061049e6004803603810190610499919061147c565b6109c4565b6040516104ab91906114d7565b60405180910390f35b3480156104c057600080fd5b506104db60048036038101906104d6919061147c565b610a3b565b6040516104e891906114d7565b60405180910390f35b3480156104fd57600080fd5b50610506610a5e565b60405161051391906115e5565b60405180910390f35b34801561052857600080fd5b50610543600480360381019061053e9190611600565b610a86565b6040516105509190611320565b60405180910390f35b34801561056557600080fd5b50610580600480360381019061057b91906115a9565b610b0d565b005b6000600754905090565b60606003805461059b9061166f565b80601f01602080910402602001604051908101604052809291908181526020018280546105c79061166f565b80156106145780601f106105e957610100808354040283529160200191610614565b820191906000526020600020905b8154815290600101906020018083116105f757829003601f168201915b5050505050905090565b600080610629610b90565b9050610636818585610b98565b600191505092915050565b60075481565b6000600254905090565b60008061065c610b90565b9050610669858285610d61565b610674858585610ded565b60019150509392505050565b60065481565b60006012905090565b6006548161069d91906116cf565b3410156106d6576040517ff4d678b800000000000000000000000000000000000000000000000000000000815260040160405180910390fd5b60006106e0610863565b73ffffffffffffffffffffffffffffffffffffffff166006548361070491906116cf565b60405161071090611742565b60006040518083038185875af1925050503d806000811461074d576040519150601f19603f3d011682016040523d82523d6000602084013e610752565b606091505b5050905080610796576040517f08c379a000000000000000000000000000000000000000000000000000000000815260040161078d906117a3565b60405180910390fd5b6107a86107a1610863565b3384610ded565b5050565b6000806107b7610b90565b90506107d88185856107c98589610a86565b6107d391906117c3565b610b98565b600191505092915050565b60008060008373ffffffffffffffffffffffffffffffffffffffff1673ffffffffffffffffffffffffffffffffffffffff168152602001908152602001600020549050919050565b610833611063565b61083d60006110e1565b565b7f000000000000000000000000000000000000000000000000000000000000000081565b6000600560009054906101000a900473ffffffffffffffffffffffffffffffffffffffff16905090565b60606004805461089c9061166f565b80601f01602080910402602001604051908101604052809291908181526020018280546108c89061166f565b80156109155780601f106108ea57610100808354040283529160200191610915565b820191906000526020600020905b8154815290600101906020018083116108f857829003601f168201915b5050505050905090565b610927611063565b60008103610961576040517f3b19a3e000000000000000000000000000000000000000000000000000000000815260040160405180910390fd5b61096b33826111a7565b50565b6000600654905090565b610980611063565b600081036109ba576040517f3b19a3e000000000000000000000000000000000000000000000000000000000815260040160405180910390fd5b8060068190555050565b6000806109cf610b90565b905060006109dd8286610a86565b905083811015610a22576040517f08c379a0000000000000000000000000000000000000000000000000000000008152600401610a1990611869565b60405180910390fd5b610a2f8286868403610b98565b60019250505092915050565b600080610a46610b90565b9050610a53818585610ded565b600191505092915050565b60007f0000000000000000000000000000000000000000000000000000000000000000905090565b6000600160008473ffffffffffffffffffffffffffffffffffffffff1673ffffffffffffffffffffffffffffffffffffffff16815260200190815260200160002060008373ffffffffffffffffffffffffffffffffffffffff1673ffffffffffffffffffffffffffffffffffffffff16815260200190815260200160002054905092915050565b610b15611063565b600073ffffffffffffffffffffffffffffffffffffffff168173ffffffffffffffffffffffffffffffffffffffff1603610b84576040517f08c379a0000000000000000000000000000000000000000000000000000000008152600401610b7b906118fb565b60405180910390fd5b610b8d816110e1565b50565b600033905090565b600073ffffffffffffffffffffffffffffffffffffffff168373ffffffffffffffffffffffffffffffffffffffff1603610c07576040517f08c379a0000000000000000000000000000000000000000000000000000000008152600401610bfe9061198d565b60405180910390fd5b600073ffffffffffffffffffffffffffffffffffffffff168273ffffffffffffffffffffffffffffffffffffffff1603610c76576040517f08c379a0000000000000000000000000000000000000000000000000000000008152600401610c6d90611a1f565b60405180910390fd5b80600160008573ffffffffffffffffffffffffffffffffffffffff1673ffffffffffffffffffffffffffffffffffffffff16815260200190815260200160002060008473ffffffffffffffffffffffffffffffffffffffff1673ffffffffffffffffffffffffffffffffffffffff168152602001908152602001600020819055508173ffffffffffffffffffffffffffffffffffffffff168373ffffffffffffffffffffffffffffffffffffffff167f8c5be1e5ebec7d5bd14f71427d1e84f3dd0314c0f7b2291e5b200ac8c7c3b92583604051610d549190611320565b60405180910390a3505050565b6000610d6d8484610a86565b90507fffffffffffffffffffffffffffffffffffffffffffffffffffffffffffffffff8114610de75781811015610dd9576040517f08c379a0000000000000000000000000000000000000000000000000000000008152600401610dd090611a8b565b60405180910390fd5b610de68484848403610b98565b5b50505050565b600073ffffffffffffffffffffffffffffffffffffffff168373ffffffffffffffffffffffffffffffffffffffff1603610e5c576040517f08c379a0000000000000000000000000000000000000000000000000000000008152600401610e5390611b1d565b60405180910390fd5b600073ffffffffffffffffffffffffffffffffffffffff168273ffffffffffffffffffffffffffffffffffffffff1603610ecb576040517f08c379a0000000000000000000000000000000000000000000000000000000008152600401610ec290611baf565b60405180910390fd5b610ed68383836112fd565b60008060008573ffffffffffffffffffffffffffffffffffffffff1673ffffffffffffffffffffffffffffffffffffffff16815260200190815260200160002054905081811015610f5c576040517f08c379a0000000000000000000000000000000000000000000000000000000008152600401610f5390611c41565b60405180910390fd5b8181036000808673ffffffffffffffffffffffffffffffffffffffff1673ffffffffffffffffffffffffffffffffffffffff16815260200190815260200160002081905550816000808573ffffffffffffffffffffffffffffffffffffffff1673ffffffffffffffffffffffffffffffffffffffff168152602001908152602001600020600082825401925050819055508273ffffffffffffffffffffffffffffffffffffffff168473ffffffffffffffffffffffffffffffffffffffff167fddf252ad1be2c89b69c2b068fc378daa952ba7f163c4a11628f55a4df523b3ef8460405161104a9190611320565b60405180910390a361105d848484611302565b50505050565b61106b610b90565b73ffffffffffffffffffffffffffffffffffffffff16611089610863565b73ffffffffffffffffffffffffffffffffffffffff16146110df576040517f08c379a00000000000000000000000000000000000000000000000000000000081526004016110d690611cad565b60405180910390fd5b565b6000600560009054906101000a900473ffffffffffffffffffffffffffffffffffffffff16905081600560006101000a81548173ffffffffffffffffffffffffffffffffffffffff021916908373ffffffffffffffffffffffffffffffffffffffff1602179055508173ffffffffffffffffffffffffffffffffffffffff168173ffffffffffffffffffffffffffffffffffffffff167f8be0079c531659141344cd1fd0a4f28419497f9722a3daafe3b4186f6b6457e060405160405180910390a35050565b600073ffffffffffffffffffffffffffffffffffffffff168273ffffffffffffffffffffffffffffffffffffffff1603611216576040517f08c379a000000000000000000000000000000000000000000000000000000000815260040161120d90611d19565b60405180910390fd5b611222600083836112fd565b806002600082825461123491906117c3565b92505081905550806000808473ffffffffffffffffffffffffffffffffffffffff1673ffffffffffffffffffffffffffffffffffffffff168152602001908152602001600020600082825401925050819055508173ffffffffffffffffffffffffffffffffffffffff16600073ffffffffffffffffffffffffffffffffffffffff167fddf252ad1be2c89b69c2b068fc378daa952ba7f163c4a11628f55a4df523b3ef836040516112e59190611320565b60405180910390a36112f960008383611302565b5050565b505050565b505050565b6000819050919050565b61131a81611307565b82525050565b60006020820190506113356000830184611311565b92915050565b600081519050919050565b600082825260208201905092915050565b60005b8381101561137557808201518184015260208101905061135a565b60008484015250505050565b6000601f19601f8301169050919050565b600061139d8261133b565b6113a78185611346565b93506113b7818560208601611357565b6113c081611381565b840191505092915050565b600060208201905081810360008301526113e58184611392565b905092915050565b600080fd5b600073ffffffffffffffffffffffffffffffffffffffff82169050919050565b600061141d826113f2565b9050919050565b61142d81611412565b811461143857600080fd5b50565b60008135905061144a81611424565b92915050565b61145981611307565b811461146457600080fd5b50565b60008135905061147681611450565b92915050565b60008060408385031215611493576114926113ed565b5b60006114a18582860161143b565b92505060206114b285828601611467565b9150509250929050565b60008115159050919050565b6114d1816114bc565b82525050565b60006020820190506114ec60008301846114c8565b92915050565b60008060006060848603121561150b5761150a6113ed565b5b60006115198682870161143b565b935050602061152a8682870161143b565b925050604061153b86828701611467565b9150509250925092565b600060ff82169050919050565b61155b81611545565b82525050565b60006020820190506115766000830184611552565b92915050565b600060208284031215611592576115916113ed565b5b60006115a084828501611467565b91505092915050565b6000602082840312156115bf576115be6113ed565b5b60006115cd8482850161143b565b91505092915050565b6115df81611412565b82525050565b60006020820190506115fa60008301846115d6565b92915050565b60008060408385031215611617576116166113ed565b5b60006116258582860161143b565b92505060206116368582860161143b565b9150509250929050565b7f4e487b7100000000000000000000000000000000000000000000000000000000600052602260045260246000fd5b6000600282049050600182168061168757607f821691505b60208210810361169a57611699611640565b5b50919050565b7f4e487b7100000000000000000000000000000000000000000000000000000000600052601160045260246000fd5b60006116da82611307565b91506116e583611307565b92508282026116f381611307565b9150828204841483151761170a576117096116a0565b5b5092915050565b600081905092915050565b50565b600061172c600083611711565b91506117378261171c565b600082019050919050565b600061174d8261171f565b9150819050919050565b7f43616c6c206661696c6564000000000000000000000000000000000000000000600082015250565b600061178d600b83611346565b915061179882611757565b602082019050919050565b600060208201905081810360008301526117bc81611780565b9050919050565b60006117ce82611307565b91506117d983611307565b92508282019050808211156117f1576117f06116a0565b5b92915050565b7f45524332303a2064656372656173656420616c6c6f77616e63652062656c6f7760008201527f207a65726f000000000000000000000000000000000000000000000000000000602082015250565b6000611853602583611346565b915061185e826117f7565b604082019050919050565b6000602082019050818103600083015261188281611846565b9050919050565b7f4f776e61626c653a206e6577206f776e657220697320746865207a65726f206160008201527f6464726573730000000000000000000000000000000000000000000000000000602082015250565b60006118e5602683611346565b91506118f082611889565b604082019050919050565b60006020820190508181036000830152611914816118d8565b9050919050565b7f45524332303a20617070726f76652066726f6d20746865207a65726f2061646460008201527f7265737300000000000000000000000000000000000000000000000000000000602082015250565b6000611977602483611346565b91506119828261191b565b604082019050919050565b600060208201905081810360008301526119a68161196a565b9050919050565b7f45524332303a20617070726f766520746f20746865207a65726f20616464726560008201527f7373000000000000000000000000000000000000000000000000000000000000602082015250565b6000611a09602283611346565b9150611a14826119ad565b604082019050919050565b60006020820190508181036000830152611a38816119fc565b9050919050565b7f45524332303a20696e73756666696369656e7420616c6c6f77616e6365000000600082015250565b6000611a75601d83611346565b9150611a8082611a3f565b602082019050919050565b60006020820190508181036000830152611aa481611a68565b9050919050565b7f45524332303a207472616e736665722066726f6d20746865207a65726f20616460008201527f6472657373000000000000000000000000000000000000000000000000000000602082015250565b6000611b07602583611346565b9150611b1282611aab565b604082019050919050565b60006020820190508181036000830152611b3681611afa565b9050919050565b7f45524332303a207472616e7366657220746f20746865207a65726f206164647260008201527f6573730000000000000000000000000000000000000000000000000000000000602082015250565b6000611b99602383611346565b9150611ba482611b3d565b604082019050919050565b60006020820190508181036000830152611bc881611b8c565b9050919050565b7f45524332303a207472616e7366657220616d6f756e742065786365656473206260008201527f616c616e63650000000000000000000000000000000000000000000000000000602082015250565b6000611c2b602683611346565b9150611c3682611bcf565b604082019050919050565b60006020820190508181036000830152611c5a81611c1e565b9050919050565b7f4f776e61626c653a2063616c6c6572206973206e6f7420746865206f776e6572600082015250565b6000611c97602083611346565b9150611ca282611c61565b602082019050919050565b60006020820190508181036000830152611cc681611c8a565b9050919050565b7f45524332303a206d696e7420746f20746865207a65726f206164647265737300600082015250565b6000611d03601f83611346565b9150611d0e82611ccd565b602082019050919050565b60006020820190508181036000830152611d3281611cf6565b905091905056fea26469706673582212207c152724cbbb269583e1b340de5444fc4decc4eb916fd5ec4986568a4715272a64736f6c63430008110033",
  "devdoc": {
    "kind": "dev",
    "methods": {
      "allowance(address,address)": {
        "details": "See {IERC20-allowance}."
      },
      "approve(address,uint256)": {
        "details": "See {IERC20-approve}. NOTE: If `amount` is the maximum `uint256`, the allowance is not updated on `transferFrom`. This is semantically equivalent to an infinite approval. Requirements: - `spender` cannot be the zero address."
      },
      "balanceOf(address)": {
        "details": "See {IERC20-balanceOf}."
      },
      "decimals()": {
        "details": "Returns the number of decimals used to get its user representation. For example, if `decimals` equals `2`, a balance of `505` tokens should be displayed to a user as `5.05` (`505 / 10 ** 2`). Tokens usually opt for a value of 18, imitating the relationship between Ether and Wei. This is the value {ERC20} uses, unless this function is overridden; NOTE: This information is only used for _display_ purposes: it in no way affects any of the arithmetic of the contract, including {IERC20-balanceOf} and {IERC20-transfer}."
      },
      "decreaseAllowance(address,uint256)": {
        "details": "Atomically decreases the allowance granted to `spender` by the caller. This is an alternative to {approve} that can be used as a mitigation for problems described in {IERC20-approve}. Emits an {Approval} event indicating the updated allowance. Requirements: - `spender` cannot be the zero address. - `spender` must have allowance for the caller of at least `subtractedValue`."
      },
      "increaseAllowance(address,uint256)": {
        "details": "Atomically increases the allowance granted to `spender` by the caller. This is an alternative to {approve} that can be used as a mitigation for problems described in {IERC20-approve}. Emits an {Approval} event indicating the updated allowance. Requirements: - `spender` cannot be the zero address."
      },
      "name()": {
        "details": "Returns the name of the token."
      },
      "owner()": {
        "details": "Returns the address of the current owner."
      },
      "renounceOwnership()": {
        "details": "Leaves the contract without owner. It will not be possible to call `onlyOwner` functions anymore. Can only be called by the current owner. NOTE: Renouncing ownership will leave the contract without an owner, thereby removing any functionality that is only available to the owner."
      },
      "symbol()": {
        "details": "Returns the symbol of the token, usually a shorter version of the name."
      },
      "totalSupply()": {
        "details": "See {IERC20-totalSupply}."
      },
      "transfer(address,uint256)": {
        "details": "See {IERC20-transfer}. Requirements: - `to` cannot be the zero address. - the caller must have a balance of at least `amount`."
      },
      "transferFrom(address,address,uint256)": {
        "details": "See {IERC20-transferFrom}. Emits an {Approval} event indicating the updated allowance. This is not required by the EIP. See the note at the beginning of {ERC20}. NOTE: Does not update the allowance if the current allowance is the maximum `uint256`. Requirements: - `from` and `to` cannot be the zero address. - `from` must have a balance of at least `amount`. - the caller must have allowance for ``from``'s tokens of at least `amount`."
      },
      "transferOwnership(address)": {
        "details": "Transfers ownership of the contract to a new account (`newOwner`). Can only be called by the current owner."
      }
    },
    "version": 1
  },
  "userdoc": {
    "kind": "user",
    "methods": {},
    "version": 1
  },
  "storageLayout": {
    "storage": [
      {
        "astId": 128,
        "contract": "contracts/fractional.sol:FractionalNft",
        "label": "_balances",
        "offset": 0,
        "slot": "0",
        "type": "t_mapping(t_address,t_uint256)"
      },
      {
        "astId": 134,
        "contract": "contracts/fractional.sol:FractionalNft",
        "label": "_allowances",
        "offset": 0,
        "slot": "1",
        "type": "t_mapping(t_address,t_mapping(t_address,t_uint256))"
      },
      {
        "astId": 136,
        "contract": "contracts/fractional.sol:FractionalNft",
        "label": "_totalSupply",
        "offset": 0,
        "slot": "2",
        "type": "t_uint256"
      },
      {
        "astId": 138,
        "contract": "contracts/fractional.sol:FractionalNft",
        "label": "_name",
        "offset": 0,
        "slot": "3",
        "type": "t_string_storage"
      },
      {
        "astId": 140,
        "contract": "contracts/fractional.sol:FractionalNft",
        "label": "_symbol",
        "offset": 0,
        "slot": "4",
        "type": "t_string_storage"
      },
      {
        "astId": 7,
        "contract": "contracts/fractional.sol:FractionalNft",
        "label": "_owner",
        "offset": 0,
        "slot": "5",
        "type": "t_address"
      },
      {
        "astId": 3627,
        "contract": "contracts/fractional.sol:FractionalNft",
        "label": "s_price",
        "offset": 0,
        "slot": "6",
        "type": "t_uint256"
      },
      {
        "astId": 3631,
        "contract": "contracts/fractional.sol:FractionalNft",
        "label": "s_tokenId",
        "offset": 0,
        "slot": "7",
        "type": "t_uint256"
      }
    ],
    "types": {
      "t_address": {
        "encoding": "inplace",
        "label": "address",
        "numberOfBytes": "20"
      },
      "t_mapping(t_address,t_mapping(t_address,t_uint256))": {
        "encoding": "mapping",
        "key": "t_address",
        "label": "mapping(address => mapping(address => uint256))",
        "numberOfBytes": "32",
        "value": "t_mapping(t_address,t_uint256)"
      },
      "t_mapping(t_address,t_uint256)": {
        "encoding": "mapping",
        "key": "t_address",
        "label": "mapping(address => uint256)",
        "numberOfBytes": "32",
        "value": "t_uint256"
      },
      "t_string_storage": {
        "encoding": "bytes",
        "label": "string",
        "numberOfBytes": "32"
      },
      "t_uint256": {
        "encoding": "inplace",
        "label": "uint256",
        "numberOfBytes": "32"
      }
    }
  }
}