{
  "address": "0xbBF3531fB2dfA0311f65046ff2eCe8A5a6Eb7375",
  "abi": [
    {
      "inputs": [
        {
          "internalType": "string",
          "name": "_name",
          "type": "string"
        },
        {
          "internalType": "uint256",
          "name": "_subscriptionPrice",
          "type": "uint256"
        },
        {
          "internalType": "uint256",
          "name": "_subscriptionDuration",
          "type": "uint256"
        },
        {
          "internalType": "uint256",
          "name": "nftCount",
          "type": "uint256"
        },
        {
          "internalType": "string",
          "name": "tokenUri",
          "type": "string"
        }
      ],
      "stateMutability": "nonpayable",
      "type": "constructor"
    },
    {
      "inputs": [],
      "name": "InsufficientBalance",
      "type": "error"
    },
    {
      "inputs": [],
      "name": "SubscriptionAlreadyActive",
      "type": "error"
    },
    {
      "inputs": [],
      "name": "SubscriptionNotActive",
      "type": "error"
    },
    {
      "inputs": [],
      "name": "subscriptionNotAvailable",
      "type": "error"
    },
    {
      "anonymous": false,
      "inputs": [
        {
          "indexed": true,
          "internalType": "address",
          "name": "owner",
          "type": "address"
        },
        {
          "indexed": true,
          "internalType": "address",
          "name": "approved",
          "type": "address"
        },
        {
          "indexed": true,
          "internalType": "uint256",
          "name": "tokenId",
          "type": "uint256"
        }
      ],
      "name": "Approval",
      "type": "event"
    },
    {
      "anonymous": false,
      "inputs": [
        {
          "indexed": true,
          "internalType": "address",
          "name": "owner",
          "type": "address"
        },
        {
          "indexed": true,
          "internalType": "address",
          "name": "operator",
          "type": "address"
        },
        {
          "indexed": false,
          "internalType": "bool",
          "name": "approved",
          "type": "bool"
        }
      ],
      "name": "ApprovalForAll",
      "type": "event"
    },
    {
      "anonymous": false,
      "inputs": [
        {
          "indexed": true,
          "internalType": "address",
          "name": "previousOwner",
          "type": "address"
        },
        {
          "indexed": true,
          "internalType": "address",
          "name": "newOwner",
          "type": "address"
        }
      ],
      "name": "OwnershipTransferred",
      "type": "event"
    },
    {
      "anonymous": false,
      "inputs": [
        {
          "indexed": true,
          "internalType": "address",
          "name": "from",
          "type": "address"
        },
        {
          "indexed": true,
          "internalType": "address",
          "name": "to",
          "type": "address"
        },
        {
          "indexed": true,
          "internalType": "uint256",
          "name": "tokenId",
          "type": "uint256"
        }
      ],
      "name": "Transfer",
      "type": "event"
    },
    {
      "inputs": [],
      "name": "TOKEN_URI",
      "outputs": [
        {
          "internalType": "string",
          "name": "",
          "type": "string"
        }
      ],
      "stateMutability": "view",
      "type": "function"
    },
    {
      "inputs": [
        {
          "internalType": "address",
          "name": "to",
          "type": "address"
        },
        {
          "internalType": "uint256",
          "name": "tokenId",
          "type": "uint256"
        }
      ],
      "name": "approve",
      "outputs": [],
      "stateMutability": "nonpayable",
      "type": "function"
    },
    {
      "inputs": [
        {
          "internalType": "address",
          "name": "owner",
          "type": "address"
        }
      ],
      "name": "balanceOf",
      "outputs": [
        {
          "internalType": "uint256",
          "name": "",
          "type": "uint256"
        }
      ],
      "stateMutability": "view",
      "type": "function"
    },
    {
      "inputs": [
        {
          "internalType": "uint256",
          "name": "_newPrice",
          "type": "uint256"
        }
      ],
      "name": "changeSubscriptionPrice",
      "outputs": [],
      "stateMutability": "nonpayable",
      "type": "function"
    },
    {
      "inputs": [
        {
          "internalType": "uint256",
          "name": "tokenId",
          "type": "uint256"
        }
      ],
      "name": "getApproved",
      "outputs": [
        {
          "internalType": "address",
          "name": "",
          "type": "address"
        }
      ],
      "stateMutability": "view",
      "type": "function"
    },
    {
      "inputs": [
        {
          "internalType": "address",
          "name": "owner",
          "type": "address"
        },
        {
          "internalType": "address",
          "name": "operator",
          "type": "address"
        }
      ],
      "name": "isApprovedForAll",
      "outputs": [
        {
          "internalType": "bool",
          "name": "",
          "type": "bool"
        }
      ],
      "stateMutability": "view",
      "type": "function"
    },
    {
      "inputs": [
        {
          "internalType": "address",
          "name": "_subscriber",
          "type": "address"
        }
      ],
      "name": "isSubscribed",
      "outputs": [
        {
          "internalType": "bool",
          "name": "",
          "type": "bool"
        }
      ],
      "stateMutability": "view",
      "type": "function"
    },
    {
      "inputs": [],
      "name": "name",
      "outputs": [
        {
          "internalType": "string",
          "name": "",
          "type": "string"
        }
      ],
      "stateMutability": "view",
      "type": "function"
    },
    {
      "inputs": [],
      "name": "owner",
      "outputs": [
        {
          "internalType": "address",
          "name": "",
          "type": "address"
        }
      ],
      "stateMutability": "view",
      "type": "function"
    },
    {
      "inputs": [
        {
          "internalType": "uint256",
          "name": "tokenId",
          "type": "uint256"
        }
      ],
      "name": "ownerOf",
      "outputs": [
        {
          "internalType": "address",
          "name": "",
          "type": "address"
        }
      ],
      "stateMutability": "view",
      "type": "function"
    },
    {
      "inputs": [],
      "name": "renounceOwnership",
      "outputs": [],
      "stateMutability": "nonpayable",
      "type": "function"
    },
    {
      "inputs": [],
      "name": "s_nftCount",
      "outputs": [
        {
          "internalType": "uint256",
          "name": "",
          "type": "uint256"
        }
      ],
      "stateMutability": "view",
      "type": "function"
    },
    {
      "inputs": [],
      "name": "s_nftId",
      "outputs": [
        {
          "internalType": "uint256",
          "name": "",
          "type": "uint256"
        }
      ],
      "stateMutability": "view",
      "type": "function"
    },
    {
      "inputs": [
        {
          "internalType": "address",
          "name": "from",
          "type": "address"
        },
        {
          "internalType": "address",
          "name": "to",
          "type": "address"
        },
        {
          "internalType": "uint256",
          "name": "tokenId",
          "type": "uint256"
        }
      ],
      "name": "safeTransferFrom",
      "outputs": [],
      "stateMutability": "nonpayable",
      "type": "function"
    },
    {
      "inputs": [
        {
          "internalType": "address",
          "name": "from",
          "type": "address"
        },
        {
          "internalType": "address",
          "name": "to",
          "type": "address"
        },
        {
          "internalType": "uint256",
          "name": "tokenId",
          "type": "uint256"
        },
        {
          "internalType": "bytes",
          "name": "data",
          "type": "bytes"
        }
      ],
      "name": "safeTransferFrom",
      "outputs": [],
      "stateMutability": "nonpayable",
      "type": "function"
    },
    {
      "inputs": [
        {
          "internalType": "address",
          "name": "operator",
          "type": "address"
        },
        {
          "internalType": "bool",
          "name": "approved",
          "type": "bool"
        }
      ],
      "name": "setApprovalForAll",
      "outputs": [],
      "stateMutability": "nonpayable",
      "type": "function"
    },
    {
      "inputs": [],
      "name": "subscribe",
      "outputs": [],
      "stateMutability": "payable",
      "type": "function"
    },
    {
      "inputs": [
        {
          "internalType": "address",
          "name": "",
          "type": "address"
        }
      ],
      "name": "subscriptionExpiry",
      "outputs": [
        {
          "internalType": "uint256",
          "name": "",
          "type": "uint256"
        }
      ],
      "stateMutability": "view",
      "type": "function"
    },
    {
      "inputs": [],
      "name": "subscriptionPrice",
      "outputs": [
        {
          "internalType": "uint256",
          "name": "",
          "type": "uint256"
        }
      ],
      "stateMutability": "view",
      "type": "function"
    },
    {
      "inputs": [
        {
          "internalType": "bytes4",
          "name": "interfaceId",
          "type": "bytes4"
        }
      ],
      "name": "supportsInterface",
      "outputs": [
        {
          "internalType": "bool",
          "name": "",
          "type": "bool"
        }
      ],
      "stateMutability": "view",
      "type": "function"
    },
    {
      "inputs": [],
      "name": "symbol",
      "outputs": [
        {
          "internalType": "string",
          "name": "",
          "type": "string"
        }
      ],
      "stateMutability": "view",
      "type": "function"
    },
    {
      "inputs": [
        {
          "internalType": "address",
          "name": "_subscriber",
          "type": "address"
        }
      ],
      "name": "timeLeft",
      "outputs": [
        {
          "internalType": "uint256",
          "name": "",
          "type": "uint256"
        }
      ],
      "stateMutability": "view",
      "type": "function"
    },
    {
      "inputs": [
        {
          "internalType": "uint256",
          "name": "",
          "type": "uint256"
        }
      ],
      "name": "tokenURI",
      "outputs": [
        {
          "internalType": "string",
          "name": "",
          "type": "string"
        }
      ],
      "stateMutability": "view",
      "type": "function"
    },
    {
      "inputs": [
        {
          "internalType": "address",
          "name": "from",
          "type": "address"
        },
        {
          "internalType": "address",
          "name": "to",
          "type": "address"
        },
        {
          "internalType": "uint256",
          "name": "tokenId",
          "type": "uint256"
        }
      ],
      "name": "transferFrom",
      "outputs": [],
      "stateMutability": "nonpayable",
      "type": "function"
    },
    {
      "inputs": [
        {
          "internalType": "address",
          "name": "newOwner",
          "type": "address"
        }
      ],
      "name": "transferOwnership",
      "outputs": [],
      "stateMutability": "nonpayable",
      "type": "function"
    },
    {
      "inputs": [
        {
          "internalType": "address",
          "name": "_to",
          "type": "address"
        }
      ],
      "name": "transferSubscription",
      "outputs": [],
      "stateMutability": "nonpayable",
      "type": "function"
    },
    {
      "inputs": [],
      "name": "withdraw",
      "outputs": [],
      "stateMutability": "nonpayable",
      "type": "function"
    }
  ],
  "transactionHash": "0x0b708f96dc710620c4b680dcde54e5582130de32257f4085f07843d2c3c357c8",
  "args": [
    "check",
    "10000000000000000",
    "100000",
    "10",
    "ipfs://"
  ],
  "numDeployments": 1,
  "solcInputHash": "a636a540d257c52aa08766fb49d89cc2",
  "bytecode": "0x60806040523480156200001157600080fd5b506040516200382a3803806200382a83398181016040528101906200003791906200038a565b846040518060400160405280600381526020017f4e4641000000000000000000000000000000000000000000000000000000000081525081600090816200007f919062000691565b50806001908162000091919062000691565b505050620000b4620000a8620000ee60201b60201c565b620000f660201b60201c565b836007819055508260088190555081600a81905550600060098190555080600b9081620000e2919062000691565b50505050505062000778565b600033905090565b6000600660009054906101000a900473ffffffffffffffffffffffffffffffffffffffff16905081600660006101000a81548173ffffffffffffffffffffffffffffffffffffffff021916908373ffffffffffffffffffffffffffffffffffffffff1602179055508173ffffffffffffffffffffffffffffffffffffffff168173ffffffffffffffffffffffffffffffffffffffff167f8be0079c531659141344cd1fd0a4f28419497f9722a3daafe3b4186f6b6457e060405160405180910390a35050565b6000604051905090565b600080fd5b600080fd5b600080fd5b600080fd5b6000601f19601f8301169050919050565b7f4e487b7100000000000000000000000000000000000000000000000000000000600052604160045260246000fd5b6200022582620001da565b810181811067ffffffffffffffff82111715620002475762000246620001eb565b5b80604052505050565b60006200025c620001bc565b90506200026a82826200021a565b919050565b600067ffffffffffffffff8211156200028d576200028c620001eb565b5b6200029882620001da565b9050602081019050919050565b60005b83811015620002c5578082015181840152602081019050620002a8565b60008484015250505050565b6000620002e8620002e2846200026f565b62000250565b905082815260208101848484011115620003075762000306620001d5565b5b62000314848285620002a5565b509392505050565b600082601f830112620003345762000333620001d0565b5b815162000346848260208601620002d1565b91505092915050565b6000819050919050565b62000364816200034f565b81146200037057600080fd5b50565b600081519050620003848162000359565b92915050565b600080600080600060a08688031215620003a957620003a8620001c6565b5b600086015167ffffffffffffffff811115620003ca57620003c9620001cb565b5b620003d8888289016200031c565b9550506020620003eb8882890162000373565b9450506040620003fe8882890162000373565b9350506060620004118882890162000373565b925050608086015167ffffffffffffffff811115620004355762000434620001cb565b5b62000443888289016200031c565b9150509295509295909350565b600081519050919050565b7f4e487b7100000000000000000000000000000000000000000000000000000000600052602260045260246000fd5b60006002820490506001821680620004a357607f821691505b602082108103620004b957620004b86200045b565b5b50919050565b60008190508160005260206000209050919050565b60006020601f8301049050919050565b600082821b905092915050565b600060088302620005237fffffffffffffffffffffffffffffffffffffffffffffffffffffffffffffffff82620004e4565b6200052f8683620004e4565b95508019841693508086168417925050509392505050565b6000819050919050565b6000620005726200056c62000566846200034f565b62000547565b6200034f565b9050919050565b6000819050919050565b6200058e8362000551565b620005a66200059d8262000579565b848454620004f1565b825550505050565b600090565b620005bd620005ae565b620005ca81848462000583565b505050565b5b81811015620005f257620005e6600082620005b3565b600181019050620005d0565b5050565b601f82111562000641576200060b81620004bf565b6200061684620004d4565b8101602085101562000626578190505b6200063e6200063585620004d4565b830182620005cf565b50505b505050565b600082821c905092915050565b6000620006666000198460080262000646565b1980831691505092915050565b600062000681838362000653565b9150826002028217905092915050565b6200069c8262000450565b67ffffffffffffffff811115620006b857620006b7620001eb565b5b620006c482546200048a565b620006d1828285620005f6565b600060209050601f831160018114620007095760008415620006f4578287015190505b62000700858262000673565b86555062000770565b601f1984166200071986620004bf565b60005b8281101562000743578489015182556001820191506020850194506020810190506200071c565b868310156200076357848901516200075f601f89168262000653565b8355505b6001600288020188555050505b505050505050565b6130a280620007886000396000f3fe60806040526004361061019c5760003560e01c8063715018a6116100ec578063b88d4fde1161008a578063c87b56dd11610064578063c87b56dd146105a5578063e8936471146105e2578063e985e9c51461060d578063f2fde38b1461064a5761019c565b8063b88d4fde14610514578063b92ae87c1461053d578063bdc8e54c1461057a5761019c565b80638f449a05116100c65780638f449a051461048d57806395d89b41146104975780639c2b5ae7146104c2578063a22cb465146104eb5761019c565b8063715018a61461042057806378ce9035146104375780638da5cb5b146104625761019c565b80633ccfd60b116101595780634c594446116101335780634c5944461461034057806360a85ef5146103695780636352211e146103a657806370a08231146103e35761019c565b80633ccfd60b146102c3578063405c649c146102da57806342842e0e146103175761019c565b806301ffc9a7146101a157806306fdde03146101de578063081812fc14610209578063095ea7b31461024657806323b872dd1461026f57806326848f1a14610298575b600080fd5b3480156101ad57600080fd5b506101c860048036038101906101c391906121e6565b610673565b6040516101d5919061222e565b60405180910390f35b3480156101ea57600080fd5b506101f3610755565b60405161020091906122d9565b60405180910390f35b34801561021557600080fd5b50610230600480360381019061022b9190612331565b6107e7565b60405161023d919061239f565b60405180910390f35b34801561025257600080fd5b5061026d600480360381019061026891906123e6565b61082d565b005b34801561027b57600080fd5b5061029660048036038101906102919190612426565b610944565b005b3480156102a457600080fd5b506102ad6109a4565b6040516102ba9190612488565b60405180910390f35b3480156102cf57600080fd5b506102d86109aa565b005b3480156102e657600080fd5b5061030160048036038101906102fc91906124a3565b610a68565b60405161030e9190612488565b60405180910390f35b34801561032357600080fd5b5061033e60048036038101906103399190612426565b610abc565b005b34801561034c57600080fd5b5061036760048036038101906103629190612331565b610adc565b005b34801561037557600080fd5b50610390600480360381019061038b91906124a3565b610b28565b60405161039d9190612488565b60405180910390f35b3480156103b257600080fd5b506103cd60048036038101906103c89190612331565b610b40565b6040516103da919061239f565b60405180910390f35b3480156103ef57600080fd5b5061040a600480360381019061040591906124a3565b610bc6565b6040516104179190612488565b60405180910390f35b34801561042c57600080fd5b50610435610c7d565b005b34801561044357600080fd5b5061044c610c91565b60405161045991906122d9565b60405180910390f35b34801561046e57600080fd5b50610477610d1f565b604051610484919061239f565b60405180910390f35b610495610d49565b005b3480156104a357600080fd5b506104ac610eb3565b6040516104b991906122d9565b60405180910390f35b3480156104ce57600080fd5b506104e960048036038101906104e491906124a3565b610f45565b005b3480156104f757600080fd5b50610512600480360381019061050d91906124fc565b611101565b005b34801561052057600080fd5b5061053b60048036038101906105369190612671565b611117565b005b34801561054957600080fd5b50610564600480360381019061055f91906124a3565b611179565b604051610571919061222e565b60405180910390f35b34801561058657600080fd5b5061058f6111c5565b60405161059c9190612488565b60405180910390f35b3480156105b157600080fd5b506105cc60048036038101906105c79190612331565b6111cf565b6040516105d991906122d9565b60405180910390f35b3480156105ee57600080fd5b506105f7611263565b6040516106049190612488565b60405180910390f35b34801561061957600080fd5b50610634600480360381019061062f91906126f4565b611269565b604051610641919061222e565b60405180910390f35b34801561065657600080fd5b50610671600480360381019061066c91906124a3565b6112fd565b005b60007f80ac58cd000000000000000000000000000000000000000000000000000000007bffffffffffffffffffffffffffffffffffffffffffffffffffffffff1916827bffffffffffffffffffffffffffffffffffffffffffffffffffffffff1916148061073e57507f5b5e139f000000000000000000000000000000000000000000000000000000007bffffffffffffffffffffffffffffffffffffffffffffffffffffffff1916827bffffffffffffffffffffffffffffffffffffffffffffffffffffffff1916145b8061074e575061074d82611380565b5b9050919050565b60606000805461076490612763565b80601f016020809104026020016040519081016040528092919081815260200182805461079090612763565b80156107dd5780601f106107b2576101008083540402835291602001916107dd565b820191906000526020600020905b8154815290600101906020018083116107c057829003601f168201915b5050505050905090565b60006107f2826113ea565b6004600083815260200190815260200160002060009054906101000a900473ffffffffffffffffffffffffffffffffffffffff169050919050565b600061083882610b40565b90508073ffffffffffffffffffffffffffffffffffffffff168373ffffffffffffffffffffffffffffffffffffffff16036108a8576040517f08c379a000000000000000000000000000000000000000000000000000000000815260040161089f90612806565b60405180910390fd5b8073ffffffffffffffffffffffffffffffffffffffff166108c7611435565b73ffffffffffffffffffffffffffffffffffffffff1614806108f657506108f5816108f0611435565b611269565b5b610935576040517f08c379a000000000000000000000000000000000000000000000000000000000815260040161092c90612898565b60405180910390fd5b61093f838361143d565b505050565b61095561094f611435565b826114f6565b610994576040517f08c379a000000000000000000000000000000000000000000000000000000000815260040161098b9061292a565b60405180910390fd5b61099f83838361158b565b505050565b60095481565b6109b2611884565b60006109bc610d1f565b73ffffffffffffffffffffffffffffffffffffffff16476040516109df9061297b565b60006040518083038185875af1925050503d8060008114610a1c576040519150601f19603f3d011682016040523d82523d6000602084013e610a21565b606091505b5050905080610a65576040517f08c379a0000000000000000000000000000000000000000000000000000000008152600401610a5c906129dc565b60405180910390fd5b50565b6000600c60008373ffffffffffffffffffffffffffffffffffffffff1673ffffffffffffffffffffffffffffffffffffffff1681526020019081526020016000205442610ab59190612a2b565b9050919050565b610ad783838360405180602001604052806000815250611117565b505050565b610ae4611884565b60008103610b1e576040517ff4d678b800000000000000000000000000000000000000000000000000000000815260040160405180910390fd5b8060078190555050565b600c6020528060005260406000206000915090505481565b600080610b4c83611902565b9050600073ffffffffffffffffffffffffffffffffffffffff168173ffffffffffffffffffffffffffffffffffffffff1603610bbd576040517f08c379a0000000000000000000000000000000000000000000000000000000008152600401610bb490612aab565b60405180910390fd5b80915050919050565b60008073ffffffffffffffffffffffffffffffffffffffff168273ffffffffffffffffffffffffffffffffffffffff1603610c36576040517f08c379a0000000000000000000000000000000000000000000000000000000008152600401610c2d90612b3d565b60405180910390fd5b600360008373ffffffffffffffffffffffffffffffffffffffff1673ffffffffffffffffffffffffffffffffffffffff168152602001908152602001600020549050919050565b610c85611884565b610c8f600061193f565b565b600b8054610c9e90612763565b80601f0160208091040260200160405190810160405280929190818152602001828054610cca90612763565b8015610d175780601f10610cec57610100808354040283529160200191610d17565b820191906000526020600020905b815481529060010190602001808311610cfa57829003601f168201915b505050505081565b6000600660009054906101000a900473ffffffffffffffffffffffffffffffffffffffff16905090565b600754341015610d85576040517ff4d678b800000000000000000000000000000000000000000000000000000000815260040160405180910390fd5b600a5460095410610dc2576040517f79f9181300000000000000000000000000000000000000000000000000000000815260040160405180910390fd5b42600c60003373ffffffffffffffffffffffffffffffffffffffff1673ffffffffffffffffffffffffffffffffffffffff1681526020019081526020016000205410610e3a576040517f6534b06200000000000000000000000000000000000000000000000000000000815260040160405180910390fd5b60085442610e489190612b5d565b600c60003373ffffffffffffffffffffffffffffffffffffffff1673ffffffffffffffffffffffffffffffffffffffff16815260200190815260200160002081905550600160096000828254610e9e9190612b5d565b92505081905550610eb133600954611a05565b565b606060018054610ec290612763565b80601f0160208091040260200160405190810160405280929190818152602001828054610eee90612763565b8015610f3b5780601f10610f1057610100808354040283529160200191610f3b565b820191906000526020600020905b815481529060010190602001808311610f1e57829003601f168201915b5050505050905090565b42600c60003373ffffffffffffffffffffffffffffffffffffffff1673ffffffffffffffffffffffffffffffffffffffff168152602001908152602001600020541015610fbe576040517fefb74efe00000000000000000000000000000000000000000000000000000000815260040160405180910390fd5b42600c60008373ffffffffffffffffffffffffffffffffffffffff1673ffffffffffffffffffffffffffffffffffffffff1681526020019081526020016000205410611036576040517f6534b06200000000000000000000000000000000000000000000000000000000815260040160405180910390fd5b600c60003373ffffffffffffffffffffffffffffffffffffffff1673ffffffffffffffffffffffffffffffffffffffff16815260200190815260200160002054600c60008373ffffffffffffffffffffffffffffffffffffffff1673ffffffffffffffffffffffffffffffffffffffff168152602001908152602001600020819055506000600c60003373ffffffffffffffffffffffffffffffffffffffff1673ffffffffffffffffffffffffffffffffffffffff1681526020019081526020016000208190555050565b61111361110c611435565b8383611a23565b5050565b611128611122611435565b836114f6565b611167576040517f08c379a000000000000000000000000000000000000000000000000000000000815260040161115e9061292a565b60405180910390fd5b61117384848484611b8f565b50505050565b600042600c60008473ffffffffffffffffffffffffffffffffffffffff1673ffffffffffffffffffffffffffffffffffffffff1681526020019081526020016000205410159050919050565b6000600754905090565b6060600b80546111de90612763565b80601f016020809104026020016040519081016040528092919081815260200182805461120a90612763565b80156112575780601f1061122c57610100808354040283529160200191611257565b820191906000526020600020905b81548152906001019060200180831161123a57829003601f168201915b50505050509050919050565b600a5481565b6000600560008473ffffffffffffffffffffffffffffffffffffffff1673ffffffffffffffffffffffffffffffffffffffff16815260200190815260200160002060008373ffffffffffffffffffffffffffffffffffffffff1673ffffffffffffffffffffffffffffffffffffffff16815260200190815260200160002060009054906101000a900460ff16905092915050565b611305611884565b600073ffffffffffffffffffffffffffffffffffffffff168173ffffffffffffffffffffffffffffffffffffffff1603611374576040517f08c379a000000000000000000000000000000000000000000000000000000000815260040161136b90612c03565b60405180910390fd5b61137d8161193f565b50565b60007f01ffc9a7000000000000000000000000000000000000000000000000000000007bffffffffffffffffffffffffffffffffffffffffffffffffffffffff1916827bffffffffffffffffffffffffffffffffffffffffffffffffffffffff1916149050919050565b6113f381611beb565b611432576040517f08c379a000000000000000000000000000000000000000000000000000000000815260040161142990612aab565b60405180910390fd5b50565b600033905090565b816004600083815260200190815260200160002060006101000a81548173ffffffffffffffffffffffffffffffffffffffff021916908373ffffffffffffffffffffffffffffffffffffffff160217905550808273ffffffffffffffffffffffffffffffffffffffff166114b083610b40565b73ffffffffffffffffffffffffffffffffffffffff167f8c5be1e5ebec7d5bd14f71427d1e84f3dd0314c0f7b2291e5b200ac8c7c3b92560405160405180910390a45050565b60008061150283610b40565b90508073ffffffffffffffffffffffffffffffffffffffff168473ffffffffffffffffffffffffffffffffffffffff16148061154457506115438185611269565b5b8061158257508373ffffffffffffffffffffffffffffffffffffffff1661156a846107e7565b73ffffffffffffffffffffffffffffffffffffffff16145b91505092915050565b8273ffffffffffffffffffffffffffffffffffffffff166115ab82610b40565b73ffffffffffffffffffffffffffffffffffffffff1614611601576040517f08c379a00000000000000000000000000000000000000000000000000000000081526004016115f890612c95565b60405180910390fd5b600073ffffffffffffffffffffffffffffffffffffffff168273ffffffffffffffffffffffffffffffffffffffff1603611670576040517f08c379a000000000000000000000000000000000000000000000000000000000815260040161166790612d27565b60405180910390fd5b61167d8383836001611c2c565b8273ffffffffffffffffffffffffffffffffffffffff1661169d82610b40565b73ffffffffffffffffffffffffffffffffffffffff16146116f3576040517f08c379a00000000000000000000000000000000000000000000000000000000081526004016116ea90612c95565b60405180910390fd5b6004600082815260200190815260200160002060006101000a81549073ffffffffffffffffffffffffffffffffffffffff02191690556001600360008573ffffffffffffffffffffffffffffffffffffffff1673ffffffffffffffffffffffffffffffffffffffff168152602001908152602001600020600082825403925050819055506001600360008473ffffffffffffffffffffffffffffffffffffffff1673ffffffffffffffffffffffffffffffffffffffff16815260200190815260200160002060008282540192505081905550816002600083815260200190815260200160002060006101000a81548173ffffffffffffffffffffffffffffffffffffffff021916908373ffffffffffffffffffffffffffffffffffffffff160217905550808273ffffffffffffffffffffffffffffffffffffffff168473ffffffffffffffffffffffffffffffffffffffff167fddf252ad1be2c89b69c2b068fc378daa952ba7f163c4a11628f55a4df523b3ef60405160405180910390a461187f8383836001611d52565b505050565b61188c611435565b73ffffffffffffffffffffffffffffffffffffffff166118aa610d1f565b73ffffffffffffffffffffffffffffffffffffffff1614611900576040517f08c379a00000000000000000000000000000000000000000000000000000000081526004016118f790612d93565b60405180910390fd5b565b60006002600083815260200190815260200160002060009054906101000a900473ffffffffffffffffffffffffffffffffffffffff169050919050565b6000600660009054906101000a900473ffffffffffffffffffffffffffffffffffffffff16905081600660006101000a81548173ffffffffffffffffffffffffffffffffffffffff021916908373ffffffffffffffffffffffffffffffffffffffff1602179055508173ffffffffffffffffffffffffffffffffffffffff168173ffffffffffffffffffffffffffffffffffffffff167f8be0079c531659141344cd1fd0a4f28419497f9722a3daafe3b4186f6b6457e060405160405180910390a35050565b611a1f828260405180602001604052806000815250611d58565b5050565b8173ffffffffffffffffffffffffffffffffffffffff168373ffffffffffffffffffffffffffffffffffffffff1603611a91576040517f08c379a0000000000000000000000000000000000000000000000000000000008152600401611a8890612dff565b60405180910390fd5b80600560008573ffffffffffffffffffffffffffffffffffffffff1673ffffffffffffffffffffffffffffffffffffffff16815260200190815260200160002060008473ffffffffffffffffffffffffffffffffffffffff1673ffffffffffffffffffffffffffffffffffffffff16815260200190815260200160002060006101000a81548160ff0219169083151502179055508173ffffffffffffffffffffffffffffffffffffffff168373ffffffffffffffffffffffffffffffffffffffff167f17307eab39ab6107e8899845ad3d59bd9653f200f220920489ca2b5937696c3183604051611b82919061222e565b60405180910390a3505050565b611b9a84848461158b565b611ba684848484611db3565b611be5576040517f08c379a0000000000000000000000000000000000000000000000000000000008152600401611bdc90612e91565b60405180910390fd5b50505050565b60008073ffffffffffffffffffffffffffffffffffffffff16611c0d83611902565b73ffffffffffffffffffffffffffffffffffffffff1614159050919050565b6001811115611d4c57600073ffffffffffffffffffffffffffffffffffffffff168473ffffffffffffffffffffffffffffffffffffffff1614611cc05780600360008673ffffffffffffffffffffffffffffffffffffffff1673ffffffffffffffffffffffffffffffffffffffff1681526020019081526020016000206000828254611cb89190612a2b565b925050819055505b600073ffffffffffffffffffffffffffffffffffffffff168373ffffffffffffffffffffffffffffffffffffffff1614611d4b5780600360008573ffffffffffffffffffffffffffffffffffffffff1673ffffffffffffffffffffffffffffffffffffffff1681526020019081526020016000206000828254611d439190612b5d565b925050819055505b5b50505050565b50505050565b611d628383611f3a565b611d6f6000848484611db3565b611dae576040517f08c379a0000000000000000000000000000000000000000000000000000000008152600401611da590612e91565b60405180910390fd5b505050565b6000611dd48473ffffffffffffffffffffffffffffffffffffffff16612157565b15611f2d578373ffffffffffffffffffffffffffffffffffffffff1663150b7a02611dfd611435565b8786866040518563ffffffff1660e01b8152600401611e1f9493929190612f06565b6020604051808303816000875af1925050508015611e5b57506040513d601f19601f82011682018060405250810190611e589190612f67565b60015b611edd573d8060008114611e8b576040519150601f19603f3d011682016040523d82523d6000602084013e611e90565b606091505b506000815103611ed5576040517f08c379a0000000000000000000000000000000000000000000000000000000008152600401611ecc90612e91565b60405180910390fd5b805181602001fd5b63150b7a0260e01b7bffffffffffffffffffffffffffffffffffffffffffffffffffffffff1916817bffffffffffffffffffffffffffffffffffffffffffffffffffffffff191614915050611f32565b600190505b949350505050565b600073ffffffffffffffffffffffffffffffffffffffff168273ffffffffffffffffffffffffffffffffffffffff1603611fa9576040517f08c379a0000000000000000000000000000000000000000000000000000000008152600401611fa090612fe0565b60405180910390fd5b611fb281611beb565b15611ff2576040517f08c379a0000000000000000000000000000000000000000000000000000000008152600401611fe99061304c565b60405180910390fd5b612000600083836001611c2c565b61200981611beb565b15612049576040517f08c379a00000000000000000000000000000000000000000000000000000000081526004016120409061304c565b60405180910390fd5b6001600360008473ffffffffffffffffffffffffffffffffffffffff1673ffffffffffffffffffffffffffffffffffffffff16815260200190815260200160002060008282540192505081905550816002600083815260200190815260200160002060006101000a81548173ffffffffffffffffffffffffffffffffffffffff021916908373ffffffffffffffffffffffffffffffffffffffff160217905550808273ffffffffffffffffffffffffffffffffffffffff16600073ffffffffffffffffffffffffffffffffffffffff167fddf252ad1be2c89b69c2b068fc378daa952ba7f163c4a11628f55a4df523b3ef60405160405180910390a4612153600083836001611d52565b5050565b6000808273ffffffffffffffffffffffffffffffffffffffff163b119050919050565b6000604051905090565b600080fd5b600080fd5b60007fffffffff0000000000000000000000000000000000000000000000000000000082169050919050565b6121c38161218e565b81146121ce57600080fd5b50565b6000813590506121e0816121ba565b92915050565b6000602082840312156121fc576121fb612184565b5b600061220a848285016121d1565b91505092915050565b60008115159050919050565b61222881612213565b82525050565b6000602082019050612243600083018461221f565b92915050565b600081519050919050565b600082825260208201905092915050565b60005b83811015612283578082015181840152602081019050612268565b60008484015250505050565b6000601f19601f8301169050919050565b60006122ab82612249565b6122b58185612254565b93506122c5818560208601612265565b6122ce8161228f565b840191505092915050565b600060208201905081810360008301526122f381846122a0565b905092915050565b6000819050919050565b61230e816122fb565b811461231957600080fd5b50565b60008135905061232b81612305565b92915050565b60006020828403121561234757612346612184565b5b60006123558482850161231c565b91505092915050565b600073ffffffffffffffffffffffffffffffffffffffff82169050919050565b60006123898261235e565b9050919050565b6123998161237e565b82525050565b60006020820190506123b46000830184612390565b92915050565b6123c38161237e565b81146123ce57600080fd5b50565b6000813590506123e0816123ba565b92915050565b600080604083850312156123fd576123fc612184565b5b600061240b858286016123d1565b925050602061241c8582860161231c565b9150509250929050565b60008060006060848603121561243f5761243e612184565b5b600061244d868287016123d1565b935050602061245e868287016123d1565b925050604061246f8682870161231c565b9150509250925092565b612482816122fb565b82525050565b600060208201905061249d6000830184612479565b92915050565b6000602082840312156124b9576124b8612184565b5b60006124c7848285016123d1565b91505092915050565b6124d981612213565b81146124e457600080fd5b50565b6000813590506124f6816124d0565b92915050565b6000806040838503121561251357612512612184565b5b6000612521858286016123d1565b9250506020612532858286016124e7565b9150509250929050565b600080fd5b600080fd5b7f4e487b7100000000000000000000000000000000000000000000000000000000600052604160045260246000fd5b61257e8261228f565b810181811067ffffffffffffffff8211171561259d5761259c612546565b5b80604052505050565b60006125b061217a565b90506125bc8282612575565b919050565b600067ffffffffffffffff8211156125dc576125db612546565b5b6125e58261228f565b9050602081019050919050565b82818337600083830152505050565b600061261461260f846125c1565b6125a6565b9050828152602081018484840111156126305761262f612541565b5b61263b8482856125f2565b509392505050565b600082601f8301126126585761265761253c565b5b8135612668848260208601612601565b91505092915050565b6000806000806080858703121561268b5761268a612184565b5b6000612699878288016123d1565b94505060206126aa878288016123d1565b93505060406126bb8782880161231c565b925050606085013567ffffffffffffffff8111156126dc576126db612189565b5b6126e887828801612643565b91505092959194509250565b6000806040838503121561270b5761270a612184565b5b6000612719858286016123d1565b925050602061272a858286016123d1565b9150509250929050565b7f4e487b7100000000000000000000000000000000000000000000000000000000600052602260045260246000fd5b6000600282049050600182168061277b57607f821691505b60208210810361278e5761278d612734565b5b50919050565b7f4552433732313a20617070726f76616c20746f2063757272656e74206f776e6560008201527f7200000000000000000000000000000000000000000000000000000000000000602082015250565b60006127f0602183612254565b91506127fb82612794565b604082019050919050565b6000602082019050818103600083015261281f816127e3565b9050919050565b7f4552433732313a20617070726f76652063616c6c6572206973206e6f7420746f60008201527f6b656e206f776e6572206f7220617070726f76656420666f7220616c6c000000602082015250565b6000612882603d83612254565b915061288d82612826565b604082019050919050565b600060208201905081810360008301526128b181612875565b9050919050565b7f4552433732313a2063616c6c6572206973206e6f7420746f6b656e206f776e6560008201527f72206f7220617070726f76656400000000000000000000000000000000000000602082015250565b6000612914602d83612254565b915061291f826128b8565b604082019050919050565b6000602082019050818103600083015261294381612907565b9050919050565b600081905092915050565b50565b600061296560008361294a565b915061297082612955565b600082019050919050565b600061298682612958565b9150819050919050565b7f43616c6c206661696c6564000000000000000000000000000000000000000000600082015250565b60006129c6600b83612254565b91506129d182612990565b602082019050919050565b600060208201905081810360008301526129f5816129b9565b9050919050565b7f4e487b7100000000000000000000000000000000000000000000000000000000600052601160045260246000fd5b6000612a36826122fb565b9150612a41836122fb565b9250828203905081811115612a5957612a586129fc565b5b92915050565b7f4552433732313a20696e76616c696420746f6b656e2049440000000000000000600082015250565b6000612a95601883612254565b9150612aa082612a5f565b602082019050919050565b60006020820190508181036000830152612ac481612a88565b9050919050565b7f4552433732313a2061646472657373207a65726f206973206e6f74206120766160008201527f6c6964206f776e65720000000000000000000000000000000000000000000000602082015250565b6000612b27602983612254565b9150612b3282612acb565b604082019050919050565b60006020820190508181036000830152612b5681612b1a565b9050919050565b6000612b68826122fb565b9150612b73836122fb565b9250828201905080821115612b8b57612b8a6129fc565b5b92915050565b7f4f776e61626c653a206e6577206f776e657220697320746865207a65726f206160008201527f6464726573730000000000000000000000000000000000000000000000000000602082015250565b6000612bed602683612254565b9150612bf882612b91565b604082019050919050565b60006020820190508181036000830152612c1c81612be0565b9050919050565b7f4552433732313a207472616e736665722066726f6d20696e636f72726563742060008201527f6f776e6572000000000000000000000000000000000000000000000000000000602082015250565b6000612c7f602583612254565b9150612c8a82612c23565b604082019050919050565b60006020820190508181036000830152612cae81612c72565b9050919050565b7f4552433732313a207472616e7366657220746f20746865207a65726f2061646460008201527f7265737300000000000000000000000000000000000000000000000000000000602082015250565b6000612d11602483612254565b9150612d1c82612cb5565b604082019050919050565b60006020820190508181036000830152612d4081612d04565b9050919050565b7f4f776e61626c653a2063616c6c6572206973206e6f7420746865206f776e6572600082015250565b6000612d7d602083612254565b9150612d8882612d47565b602082019050919050565b60006020820190508181036000830152612dac81612d70565b9050919050565b7f4552433732313a20617070726f766520746f2063616c6c657200000000000000600082015250565b6000612de9601983612254565b9150612df482612db3565b602082019050919050565b60006020820190508181036000830152612e1881612ddc565b9050919050565b7f4552433732313a207472616e7366657220746f206e6f6e20455243373231526560008201527f63656976657220696d706c656d656e7465720000000000000000000000000000602082015250565b6000612e7b603283612254565b9150612e8682612e1f565b604082019050919050565b60006020820190508181036000830152612eaa81612e6e565b9050919050565b600081519050919050565b600082825260208201905092915050565b6000612ed882612eb1565b612ee28185612ebc565b9350612ef2818560208601612265565b612efb8161228f565b840191505092915050565b6000608082019050612f1b6000830187612390565b612f286020830186612390565b612f356040830185612479565b8181036060830152612f478184612ecd565b905095945050505050565b600081519050612f61816121ba565b92915050565b600060208284031215612f7d57612f7c612184565b5b6000612f8b84828501612f52565b91505092915050565b7f4552433732313a206d696e7420746f20746865207a65726f2061646472657373600082015250565b6000612fca602083612254565b9150612fd582612f94565b602082019050919050565b60006020820190508181036000830152612ff981612fbd565b9050919050565b7f4552433732313a20746f6b656e20616c7265616479206d696e74656400000000600082015250565b6000613036601c83612254565b915061304182613000565b602082019050919050565b6000602082019050818103600083015261306581613029565b905091905056fea264697066735822122082b302b788335ff8299f4e959db78550e3f6d28a9ab1a3d05a413c745b8c785c64736f6c63430008110033",
  "devdoc": {
    "kind": "dev",
    "methods": {
      "approve(address,uint256)": {
        "details": "See {IERC721-approve}."
      },
      "balanceOf(address)": {
        "details": "See {IERC721-balanceOf}."
      },
      "getApproved(uint256)": {
        "details": "See {IERC721-getApproved}."
      },
      "isApprovedForAll(address,address)": {
        "details": "See {IERC721-isApprovedForAll}."
      },
      "name()": {
        "details": "See {IERC721Metadata-name}."
      },
      "owner()": {
        "details": "Returns the address of the current owner."
      },
      "ownerOf(uint256)": {
        "details": "See {IERC721-ownerOf}."
      },
      "renounceOwnership()": {
        "details": "Leaves the contract without owner. It will not be possible to call `onlyOwner` functions anymore. Can only be called by the current owner. NOTE: Renouncing ownership will leave the contract without an owner, thereby removing any functionality that is only available to the owner."
      },
      "safeTransferFrom(address,address,uint256)": {
        "details": "See {IERC721-safeTransferFrom}."
      },
      "safeTransferFrom(address,address,uint256,bytes)": {
        "details": "See {IERC721-safeTransferFrom}."
      },
      "setApprovalForAll(address,bool)": {
        "details": "See {IERC721-setApprovalForAll}."
      },
      "supportsInterface(bytes4)": {
        "details": "See {IERC165-supportsInterface}."
      },
      "symbol()": {
        "details": "See {IERC721Metadata-symbol}."
      },
      "transferFrom(address,address,uint256)": {
        "details": "See {IERC721-transferFrom}."
      },
      "transferOwnership(address)": {
        "details": "Transfers ownership of the contract to a new account (`newOwner`). Can only be called by the current owner."
      }
    },
    "version": 1
  },
  "userdoc": {
    "kind": "user",
    "methods": {},
    "version": 1
  },
  "storageLayout": {
    "storage": [
      {
        "astId": 828,
        "contract": "contracts/subscription.sol:SubscriptionNft",
        "label": "_name",
        "offset": 0,
        "slot": "0",
        "type": "t_string_storage"
      },
      {
        "astId": 830,
        "contract": "contracts/subscription.sol:SubscriptionNft",
        "label": "_symbol",
        "offset": 0,
        "slot": "1",
        "type": "t_string_storage"
      },
      {
        "astId": 834,
        "contract": "contracts/subscription.sol:SubscriptionNft",
        "label": "_owners",
        "offset": 0,
        "slot": "2",
        "type": "t_mapping(t_uint256,t_address)"
      },
      {
        "astId": 838,
        "contract": "contracts/subscription.sol:SubscriptionNft",
        "label": "_balances",
        "offset": 0,
        "slot": "3",
        "type": "t_mapping(t_address,t_uint256)"
      },
      {
        "astId": 842,
        "contract": "contracts/subscription.sol:SubscriptionNft",
        "label": "_tokenApprovals",
        "offset": 0,
        "slot": "4",
        "type": "t_mapping(t_uint256,t_address)"
      },
      {
        "astId": 848,
        "contract": "contracts/subscription.sol:SubscriptionNft",
        "label": "_operatorApprovals",
        "offset": 0,
        "slot": "5",
        "type": "t_mapping(t_address,t_mapping(t_address,t_bool))"
      },
      {
        "astId": 7,
        "contract": "contracts/subscription.sol:SubscriptionNft",
        "label": "_owner",
        "offset": 0,
        "slot": "6",
        "type": "t_address"
      },
      {
        "astId": 3799,
        "contract": "contracts/subscription.sol:SubscriptionNft",
        "label": "s_subscriptionPrice",
        "offset": 0,
        "slot": "7",
        "type": "t_uint256"
      },
      {
        "astId": 3801,
        "contract": "contracts/subscription.sol:SubscriptionNft",
        "label": "s_subscriptionDuration",
        "offset": 0,
        "slot": "8",
        "type": "t_uint256"
      },
      {
        "astId": 3803,
        "contract": "contracts/subscription.sol:SubscriptionNft",
        "label": "s_nftId",
        "offset": 0,
        "slot": "9",
        "type": "t_uint256"
      },
      {
        "astId": 3805,
        "contract": "contracts/subscription.sol:SubscriptionNft",
        "label": "s_nftCount",
        "offset": 0,
        "slot": "10",
        "type": "t_uint256"
      },
      {
        "astId": 3807,
        "contract": "contracts/subscription.sol:SubscriptionNft",
        "label": "TOKEN_URI",
        "offset": 0,
        "slot": "11",
        "type": "t_string_storage"
      },
      {
        "astId": 3811,
        "contract": "contracts/subscription.sol:SubscriptionNft",
        "label": "subscriptionExpiry",
        "offset": 0,
        "slot": "12",
        "type": "t_mapping(t_address,t_uint256)"
      }
    ],
    "types": {
      "t_address": {
        "encoding": "inplace",
        "label": "address",
        "numberOfBytes": "20"
      },
      "t_bool": {
        "encoding": "inplace",
        "label": "bool",
        "numberOfBytes": "1"
      },
      "t_mapping(t_address,t_bool)": {
        "encoding": "mapping",
        "key": "t_address",
        "label": "mapping(address => bool)",
        "numberOfBytes": "32",
        "value": "t_bool"
      },
      "t_mapping(t_address,t_mapping(t_address,t_bool))": {
        "encoding": "mapping",
        "key": "t_address",
        "label": "mapping(address => mapping(address => bool))",
        "numberOfBytes": "32",
        "value": "t_mapping(t_address,t_bool)"
      },
      "t_mapping(t_address,t_uint256)": {
        "encoding": "mapping",
        "key": "t_address",
        "label": "mapping(address => uint256)",
        "numberOfBytes": "32",
        "value": "t_uint256"
      },
      "t_mapping(t_uint256,t_address)": {
        "encoding": "mapping",
        "key": "t_uint256",
        "label": "mapping(uint256 => address)",
        "numberOfBytes": "32",
        "value": "t_address"
      },
      "t_string_storage": {
        "encoding": "bytes",
        "label": "string",
        "numberOfBytes": "32"
      },
      "t_uint256": {
        "encoding": "inplace",
        "label": "uint256",
        "numberOfBytes": "32"
      }
    }
  }
}